{
  "_format": "hh-sol-artifact-1",
  "contractName": "CourseMarket",
  "sourceName": "contracts/CourseMarket.sol",
  "abi": [
    {
      "inputs": [
        {
          "internalType": "address",
          "name": "lens",
          "type": "address"
        },
        {
          "internalType": "address",
          "name": "owner_",
          "type": "address"
        },
        {
          "internalType": "address",
          "name": "feeRecipient_",
          "type": "address"
        },
        {
          "internalType": "uint96",
          "name": "feeBps_",
          "type": "uint96"
        }
      ],
      "stateMutability": "nonpayable",
      "type": "constructor"
    },
    {
      "inputs": [
        {
          "internalType": "address",
          "name": "owner",
          "type": "address"
        }
      ],
      "name": "OwnableInvalidOwner",
      "type": "error"
    },
    {
      "inputs": [
        {
          "internalType": "address",
          "name": "account",
          "type": "address"
        }
      ],
      "name": "OwnableUnauthorizedAccount",
      "type": "error"
    },
    {
      "inputs": [],
      "name": "ReentrancyGuardReentrantCall",
      "type": "error"
    },
    {
      "anonymous": false,
      "inputs": [
        {
          "indexed": true,
          "internalType": "uint256",
          "name": "courseId",
          "type": "uint256"
        },
        {
          "indexed": true,
          "internalType": "address",
          "name": "author",
          "type": "address"
        },
        {
          "indexed": false,
          "internalType": "uint256",
          "name": "price",
          "type": "uint256"
        },
        {
          "indexed": false,
          "internalType": "string",
          "name": "uri",
          "type": "string"
        }
      ],
      "name": "CourseCreated",
      "type": "event"
    },
    {
      "anonymous": false,
      "inputs": [
        {
          "indexed": true,
          "internalType": "uint256",
          "name": "courseId",
          "type": "uint256"
        }
      ],
      "name": "CourseDeactivated",
      "type": "event"
    },
    {
      "anonymous": false,
      "inputs": [
        {
          "indexed": true,
          "internalType": "uint256",
          "name": "courseId",
          "type": "uint256"
        },
        {
          "indexed": false,
          "internalType": "uint256",
          "name": "newPrice",
          "type": "uint256"
        },
        {
          "indexed": false,
          "internalType": "string",
          "name": "newUri",
          "type": "string"
        }
      ],
      "name": "CourseUpdated",
      "type": "event"
    },
    {
      "anonymous": false,
      "inputs": [
        {
          "indexed": true,
          "internalType": "address",
          "name": "previousOwner",
          "type": "address"
        },
        {
          "indexed": true,
          "internalType": "address",
          "name": "newOwner",
          "type": "address"
        }
      ],
      "name": "OwnershipTransferred",
      "type": "event"
    },
    {
      "anonymous": false,
      "inputs": [
        {
          "indexed": true,
          "internalType": "uint256",
          "name": "courseId",
          "type": "uint256"
        },
        {
          "indexed": true,
          "internalType": "address",
          "name": "buyer",
          "type": "address"
        },
        {
          "indexed": false,
          "internalType": "uint256",
          "name": "price",
          "type": "uint256"
        },
        {
          "indexed": false,
          "internalType": "uint256",
          "name": "fee",
          "type": "uint256"
        },
        {
          "indexed": false,
          "internalType": "uint256",
          "name": "authorAmount",
          "type": "uint256"
        }
      ],
      "name": "Purchased",
      "type": "event"
    },
    {
      "inputs": [],
      "name": "LENS",
      "outputs": [
        {
          "internalType": "contract IERC20",
          "name": "",
          "type": "address"
        }
      ],
      "stateMutability": "view",
      "type": "function"
    },
    {
      "inputs": [
        {
          "internalType": "uint256",
          "name": "courseId",
          "type": "uint256"
        }
      ],
      "name": "buy",
      "outputs": [],
      "stateMutability": "nonpayable",
      "type": "function"
    },
    {
      "inputs": [
        {
          "internalType": "uint256",
          "name": "",
          "type": "uint256"
        }
      ],
      "name": "courses",
      "outputs": [
        {
          "internalType": "address",
          "name": "author",
          "type": "address"
        },
        {
          "internalType": "uint256",
          "name": "price",
          "type": "uint256"
        },
        {
          "internalType": "string",
          "name": "uri",
          "type": "string"
        },
        {
          "internalType": "bool",
          "name": "exists",
          "type": "bool"
        },
        {
          "internalType": "bool",
          "name": "active",
          "type": "bool"
        }
      ],
      "stateMutability": "view",
      "type": "function"
    },
    {
      "inputs": [
        {
          "internalType": "uint256",
          "name": "price",
          "type": "uint256"
        },
        {
          "internalType": "string",
          "name": "uri",
          "type": "string"
        }
      ],
      "name": "createCourse",
      "outputs": [
        {
          "internalType": "uint256",
          "name": "id",
          "type": "uint256"
        }
      ],
      "stateMutability": "nonpayable",
      "type": "function"
    },
    {
      "inputs": [
        {
          "internalType": "uint256",
          "name": "courseId",
          "type": "uint256"
        }
      ],
      "name": "deactivateCourse",
      "outputs": [],
      "stateMutability": "nonpayable",
      "type": "function"
    },
    {
      "inputs": [],
      "name": "feeBps",
      "outputs": [
        {
          "internalType": "uint96",
          "name": "",
          "type": "uint96"
        }
      ],
      "stateMutability": "view",
      "type": "function"
    },
    {
      "inputs": [],
      "name": "feeRecipient",
      "outputs": [
        {
          "internalType": "address",
          "name": "",
          "type": "address"
        }
      ],
      "stateMutability": "view",
      "type": "function"
    },
    {
      "inputs": [],
      "name": "getAllCourses",
      "outputs": [
        {
          "components": [
            {
              "internalType": "uint256",
              "name": "id",
              "type": "uint256"
            },
            {
              "internalType": "address",
              "name": "author",
              "type": "address"
            },
            {
              "internalType": "uint256",
              "name": "price",
              "type": "uint256"
            },
            {
              "internalType": "string",
              "name": "uri",
              "type": "string"
            }
          ],
          "internalType": "struct CourseMarket.CourseInfo[]",
          "name": "",
          "type": "tuple[]"
        }
      ],
      "stateMutability": "view",
      "type": "function"
    },
    {
      "inputs": [
        {
          "internalType": "address",
          "name": "author",
          "type": "address"
        }
      ],
      "name": "getAuthorCourses",
      "outputs": [
        {
          "components": [
            {
              "internalType": "uint256",
              "name": "id",
              "type": "uint256"
            },
            {
              "internalType": "address",
              "name": "author",
              "type": "address"
            },
            {
              "internalType": "uint256",
              "name": "price",
              "type": "uint256"
            },
            {
              "internalType": "string",
              "name": "uri",
              "type": "string"
            }
          ],
          "internalType": "struct CourseMarket.CourseInfo[]",
          "name": "",
          "type": "tuple[]"
        }
      ],
      "stateMutability": "view",
      "type": "function"
    },
    {
      "inputs": [
        {
          "internalType": "uint256",
          "name": "courseId",
          "type": "uint256"
        },
        {
          "internalType": "address",
          "name": "user",
          "type": "address"
        }
      ],
      "name": "hasAccess",
      "outputs": [
        {
          "internalType": "bool",
          "name": "",
          "type": "bool"
        }
      ],
      "stateMutability": "view",
      "type": "function"
    },
    {
      "inputs": [],
      "name": "nextCourseId",
      "outputs": [
        {
          "internalType": "uint256",
          "name": "",
          "type": "uint256"
        }
      ],
      "stateMutability": "view",
      "type": "function"
    },
    {
      "inputs": [],
      "name": "owner",
      "outputs": [
        {
          "internalType": "address",
          "name": "",
          "type": "address"
        }
      ],
      "stateMutability": "view",
      "type": "function"
    },
    {
      "inputs": [
        {
          "internalType": "uint256",
          "name": "",
          "type": "uint256"
        },
        {
          "internalType": "address",
          "name": "",
          "type": "address"
        }
      ],
      "name": "purchased",
      "outputs": [
        {
          "internalType": "bool",
          "name": "",
          "type": "bool"
        }
      ],
      "stateMutability": "view",
      "type": "function"
    },
    {
      "inputs": [],
      "name": "renounceOwnership",
      "outputs": [],
      "stateMutability": "nonpayable",
      "type": "function"
    },
    {
      "inputs": [
        {
          "internalType": "uint96",
          "name": "newFeeBps",
          "type": "uint96"
        },
        {
          "internalType": "address",
          "name": "newRecipient",
          "type": "address"
        }
      ],
      "name": "setFee",
      "outputs": [],
      "stateMutability": "nonpayable",
      "type": "function"
    },
    {
      "inputs": [
        {
          "internalType": "address",
          "name": "newOwner",
          "type": "address"
        }
      ],
      "name": "transferOwnership",
      "outputs": [],
      "stateMutability": "nonpayable",
      "type": "function"
    },
    {
      "inputs": [
        {
          "internalType": "uint256",
          "name": "courseId",
          "type": "uint256"
        },
        {
          "internalType": "uint256",
          "name": "newPrice",
          "type": "uint256"
        },
        {
          "internalType": "string",
          "name": "newUri",
          "type": "string"
        }
      ],
      "name": "updateCourse",
      "outputs": [],
      "stateMutability": "nonpayable",
      "type": "function"
    }
  ],
  "bytecode": "0x60a06040523480156200001157600080fd5b50604051620019ba380380620019ba8339810160408190526200003491620001af565b826001600160a01b0381166200006557604051631e4fbdf760e01b8152600060048201526024015b60405180910390fd5b620000708162000142565b50600180556001600160a01b038416620000b65760405162461bcd60e51b815260206004820152600660248201526504c454e533d360d41b60448201526064016200005c565b612710816001600160601b03161115620001025760405162461bcd60e51b815260206004820152600c60248201526b0cccaca40e8dede40d0d2ced60a31b60448201526064016200005c565b6001600160a01b039384166080526001600160601b031692166c01000000000000000000000000026001600160601b03191691909117600355506200021a565b600080546001600160a01b038381166001600160a01b0319831681178455604051919092169283917f8be0079c531659141344cd1fd0a4f28419497f9722a3daafe3b4186f6b6457e09190a35050565b80516001600160a01b0381168114620001aa57600080fd5b919050565b60008060008060808587031215620001c657600080fd5b620001d18562000192565b9350620001e16020860162000192565b9250620001f16040860162000192565b60608601519092506001600160601b03811681146200020f57600080fd5b939692955090935050565b608051611776620002446000396000818161013301528181610e880152610f7001526117766000f3fe608060405234801561001057600080fd5b506004361061010b5760003560e01c80637d83daf2116100a2578063ac85495d11610071578063ac85495d14610254578063c7e1533814610267578063ced14198146102a5578063d96a094a146102b8578063f2fde38b146102cb57600080fd5b80637d83daf214610203578063858efaf31461020c5780638da5cb5b1461021f57806396f979d21461023057600080fd5b806330460afd116100de57806330460afd146101ad5780633912d788146101c057806346904840146101e1578063715018a6146101fb57600080fd5b806304e48bd11461011057806318a4619a1461012e57806324a9d8531461016d578063288c6ca714610198575b600080fd5b6101186102de565b6040516101259190611199565b60405180910390f35b6101557f000000000000000000000000000000000000000000000000000000000000000081565b6040516001600160a01b039091168152602001610125565b600354610180906001600160601b031681565b6040516001600160601b039091168152602001610125565b6101ab6101a6366004611278565b610508565b005b6101ab6101bb3660046112e7565b61061d565b6101d36101ce366004611328565b6106c3565b604051908152602001610125565b60035461015590600160601b90046001600160a01b031681565b6101ab61083a565b6101d360025481565b61011861021a366004611374565b61084e565b6000546001600160a01b0316610155565b61024361023e366004611396565b610aa9565b6040516101259594939291906113af565b6101ab610262366004611396565b610b70565b6102956102753660046113ef565b600560209081526000928352604080842090915290825290205460ff1681565b6040519015158152602001610125565b6102956102b33660046113ef565b610c24565b6101ab6102c6366004611396565b610c51565b6101ab6102d9366004611374565b611071565b6060600060015b600254811161033f576000818152600460205260409020600381015460ff16801561031957506003810154610100900460ff165b1561032c578261032881611428565b9350505b508061033781611428565b9150506102e5565b5060008167ffffffffffffffff81111561035b5761035b611441565b6040519080825280602002602001820160405280156103c057816020015b6103ad60405180608001604052806000815260200160006001600160a01b0316815260200160008152602001606081525090565b8152602001906001900390816103795790505b509050600060015b60025481116104ff576000818152600460205260409020600381015460ff1680156103fc57506003810154610100900460ff165b156104ec576040805160808101825283815282546001600160a01b0316602082015260018301549181019190915260028201805460608301919061043f90611457565b80601f016020809104026020016040519081016040528092919081815260200182805461046b90611457565b80156104b85780601f1061048d576101008083540402835291602001916104b8565b820191906000526020600020905b81548152906001019060200180831161049b57829003601f168201915b50505050508152508484815181106104d2576104d2611491565b602002602001018190525082806104e890611428565b9350505b50806104f781611428565b9150506103c8565b50909392505050565b6000848152600460205260409020600381015460ff166105435760405162461bcd60e51b815260040161053a906114a7565b60405180910390fd5b80546001600160a01b031633146105895760405162461bcd60e51b815260206004820152600a6024820152693737ba1030baba3437b960b11b604482015260640161053a565b600084116105c35760405162461bcd60e51b8152602060048201526007602482015266070726963653d360cc1b604482015260640161053a565b60018101849055600281016105d983858361151b565b50847f4965ce9528479ca02830fcc7534f8a47ae03800f177f4c68ae661d926af2e77985858560405161060e939291906115dc565b60405180910390a25050505050565b6106256110ac565b612710826001600160601b0316111561066f5760405162461bcd60e51b815260206004820152600c60248201526b0cccaca40e8dede40d0d2ced60a31b604482015260640161053a565b600380546bffffffffffffffffffffffff19166001600160601b0384161790556001600160a01b038116156106bf57600380546001600160601b0316600160601b6001600160a01b038416021790555b5050565b60008084116106fe5760405162461bcd60e51b8152602060048201526007602482015266070726963653d360cc1b604482015260640161053a565b60026000815461070d90611428565b91905081905590506040518060a00160405280336001600160a01b0316815260200185815260200184848080601f016020809104026020016040519081016040528093929190818152602001838380828437600092018290525093855250506001602080850182905260409485018290528684526004815292849020855181546001600160a01b0319166001600160a01b039091161781559285015190830155509082015160028201906107c19082611612565b5060608201516003909101805460809093015115156101000261ff00199215159290921661ffff1990931692909217179055604051339082907f78db422d3ef3aae3907af31eb656ee0e8486da88495c1c85049c10f1d4d585199061082b908890889088906115dc565b60405180910390a39392505050565b6108426110ac565b61084c60006110d9565b565b6060600060015b60025481116108c7576000818152600460205260409020600381015460ff16801561088957506003810154610100900460ff165b80156108a1575080546001600160a01b038681169116145b156108b457826108b081611428565b9350505b50806108bf81611428565b915050610855565b5060008167ffffffffffffffff8111156108e3576108e3611441565b60405190808252806020026020018201604052801561094857816020015b61093560405180608001604052806000815260200160006001600160a01b0316815260200160008152602001606081525090565b8152602001906001900390816109015790505b509050600060015b6002548111610a9f576000818152600460205260409020600381015460ff16801561098457506003810154610100900460ff165b801561099c575080546001600160a01b038881169116145b15610a8c576040805160808101825283815282546001600160a01b031660208201526001830154918101919091526002820180546060830191906109df90611457565b80601f0160208091040260200160405190810160405280929190818152602001828054610a0b90611457565b8015610a585780601f10610a2d57610100808354040283529160200191610a58565b820191906000526020600020905b815481529060010190602001808311610a3b57829003601f168201915b5050505050815250848481518110610a7257610a72611491565b60200260200101819052508280610a8890611428565b9350505b5080610a9781611428565b915050610950565b5090949350505050565b6004602052600090815260409020805460018201546002830180546001600160a01b03909316939192610adb90611457565b80601f0160208091040260200160405190810160405280929190818152602001828054610b0790611457565b8015610b545780601f10610b2957610100808354040283529160200191610b54565b820191906000526020600020905b815481529060010190602001808311610b3757829003601f168201915b5050506003909301549192505060ff8082169161010090041685565b6000818152600460205260409020600381015460ff16610ba25760405162461bcd60e51b815260040161053a906114a7565b80546001600160a01b03163314610be85760405162461bcd60e51b815260206004820152600a6024820152693737ba1030baba3437b960b11b604482015260640161053a565b60038101805461ff001916905560405182907f85a406c134e004f27c0b2cd0d0d951d7235374623df2bc40752d06597463a83f90600090a25050565b60008281526005602090815260408083206001600160a01b038516845290915290205460ff165b92915050565b610c59611129565b6000818152600460209081526040808320815160a08101835281546001600160a01b031681526001820154938101939093526002810180549192840191610c9f90611457565b80601f0160208091040260200160405190810160405280929190818152602001828054610ccb90611457565b8015610d185780601f10610ced57610100808354040283529160200191610d18565b820191906000526020600020905b815481529060010190602001808311610cfb57829003601f168201915b50505091835250506003919091015460ff808216151560208401526101009091041615156040909101526060810151909150610d665760405162461bcd60e51b815260040161053a906114a7565b8060800151610da25760405162461bcd60e51b8152602060048201526008602482015267696e61637469766560c01b604482015260640161053a565b600082815260056020908152604080832033845290915290205460ff1615610df65760405162461bcd60e51b8152602060048201526007602482015266616c726561647960c81b604482015260640161053a565b600082815260056020908152604080832033845282528220805460ff191660011790556003549083015161271091610e39916001600160601b03909116906116d2565b610e4391906116e9565b90506000818360200151610e57919061170b565b83516040516323b872dd60e01b81523360048201526001600160a01b039182166024820152604481018390529192507f000000000000000000000000000000000000000000000000000000000000000016906323b872dd906064016020604051808303816000875af1158015610ed1573d6000803e3d6000fd5b505050506040513d601f19601f82011682018060405250810190610ef5919061171e565b610f335760405162461bcd60e51b815260206004820152600f60248201526e1c185e48185d5d1a1bdc8819985a5b608a1b604482015260640161053a565b8115611018576003546040516323b872dd60e01b8152336004820152600160601b9091046001600160a01b039081166024830152604482018490527f000000000000000000000000000000000000000000000000000000000000000016906323b872dd906064016020604051808303816000875af1158015610fb9573d6000803e3d6000fd5b505050506040513d601f19601f82011682018060405250810190610fdd919061171e565b6110185760405162461bcd60e51b815260206004820152600c60248201526b1c185e481999594819985a5b60a21b604482015260640161053a565b60208084015160408051918252918101849052908101829052339085907f6fdf4fde4cc12592feea1edbf6fcc530b69dd9a0ccf9f1138212c11fc11b42629060600160405180910390a350505061106e60018055565b50565b6110796110ac565b6001600160a01b0381166110a357604051631e4fbdf760e01b81526000600482015260240161053a565b61106e816110d9565b6000546001600160a01b0316331461084c5760405163118cdaa760e01b815233600482015260240161053a565b600080546001600160a01b038381166001600160a01b0319831681178455604051919092169283917f8be0079c531659141344cd1fd0a4f28419497f9722a3daafe3b4186f6b6457e09190a35050565b60026001540361114c57604051633ee5aeb560e01b815260040160405180910390fd5b6002600155565b6000815180845260005b818110156111795760208185018101518683018201520161115d565b506000602082860101526020601f19601f83011685010191505092915050565b600060208083018184528085518083526040925060408601915060408160051b87010184880160005b8381101561122157888303603f19018552815180518452878101516001600160a01b031688850152868101518785015260609081015160809185018290529061120d81860183611153565b9689019694505050908601906001016111c2565b509098975050505050505050565b60008083601f84011261124157600080fd5b50813567ffffffffffffffff81111561125957600080fd5b60208301915083602082850101111561127157600080fd5b9250929050565b6000806000806060858703121561128e57600080fd5b8435935060208501359250604085013567ffffffffffffffff8111156112b357600080fd5b6112bf8782880161122f565b95989497509550505050565b80356001600160a01b03811681146112e257600080fd5b919050565b600080604083850312156112fa57600080fd5b82356001600160601b038116811461131157600080fd5b915061131f602084016112cb565b90509250929050565b60008060006040848603121561133d57600080fd5b83359250602084013567ffffffffffffffff81111561135b57600080fd5b6113678682870161122f565b9497909650939450505050565b60006020828403121561138657600080fd5b61138f826112cb565b9392505050565b6000602082840312156113a857600080fd5b5035919050565b60018060a01b038616815284602082015260a0604082015260006113d660a0830186611153565b9315156060830152509015156080909101529392505050565b6000806040838503121561140257600080fd5b8235915061131f602084016112cb565b634e487b7160e01b600052601160045260246000fd5b60006001820161143a5761143a611412565b5060010190565b634e487b7160e01b600052604160045260246000fd5b600181811c9082168061146b57607f821691505b60208210810361148b57634e487b7160e01b600052602260045260246000fd5b50919050565b634e487b7160e01b600052603260045260246000fd5b6020808252600990820152681b9bdd08199bdd5b9960ba1b604082015260600190565b601f821115611516576000816000526020600020601f850160051c810160208610156114f35750805b601f850160051c820191505b81811015611512578281556001016114ff565b5050505b505050565b67ffffffffffffffff83111561153357611533611441565b611547836115418354611457565b836114ca565b6000601f84116001811461157b57600085156115635750838201355b600019600387901b1c1916600186901b1783556115d5565b600083815260209020601f19861690835b828110156115ac578685013582556020948501946001909201910161158c565b50868210156115c95760001960f88860031b161c19848701351681555b505060018560011b0183555b5050505050565b83815260406020820152816040820152818360608301376000818301606090810191909152601f909201601f1916010192915050565b815167ffffffffffffffff81111561162c5761162c611441565b6116408161163a8454611457565b846114ca565b602080601f831160018114611675576000841561165d5750858301515b600019600386901b1c1916600185901b178555611512565b600085815260208120601f198616915b828110156116a457888601518255948401946001909101908401611685565b50858210156116c25787850151600019600388901b60f8161c191681555b5050505050600190811b01905550565b8082028115828204841417610c4b57610c4b611412565b60008261170657634e487b7160e01b600052601260045260246000fd5b500490565b81810381811115610c4b57610c4b611412565b60006020828403121561173057600080fd5b8151801515811461138f57600080fdfea2646970667358221220572698abc9e20b068d7c1f7f27f9c0259d52d294f7a16730726284ab3e4877f464736f6c63430008180033",
  "linkReferences": {},
  "deployedLinkReferences": {}
}